:03000000020DFEF0
:0C0DFE00787FE4F6D8FD758149020C51A5
:100D070057656C636F6D6520546F20424D530050DB
:100D1700726F74656374696F6E4D6F64756C65008F
:100D2700202020424D53204D4F44554C4500202054
:020D370020009A
:100C5100E4F524F525120CD3120E217BFF7A0D79D0
:100C610007120D607FC0120DDA7F8F7E01120D8990
:100C71007BFF7A0D7916120D607F997E0F120D8917
:100C81007F01120DDA7BFF7A0D7927120D60120DAB
:100C9100C7120E0A8E228F237FC0120DDA7BFF7AD4
:100CA1000D7935120D60AF23AE22120DA8D3E523C5
:100CB1009463E52294004004C294800DC3E523941B
:100CC10003E52294005002D2947F5D7E00120D89CB
:020CD10080BCE5
:030E2100C2932257
:100DC700E4FFFEC291D2912090FDC292AFB07E00A7
:020DD700D292B6
:010DD90022F7
:0C0E0A007C007D64120B757DFF020B87DD
:0B0E1600534F43203A2025752525008E
:100CD3007F38120DDA120D857F0E120DDA120D8593
:100CE3007F01120DDA120D857F06120DDA120D85C2
:100CF3007F0C120DDA120D857F80120DDA7F097ECB
:040D030000020D8954
:100DDA008FA0C280C281D2827F037E00120D89C297
:020DEA00822263
:100DEC008FA0D280C281D2827F037E00120D89C275
:020DFC00822251
:100D60008B368A378938AB36AA37A938120B5C60C4
:100D7000130538E5387002053714F9120B5CFF12C1
:050D80000DEC80E222F1
:100DA8007539FF753A0E753B168E3C8F3D7B007A80
:0F0DB80000792612085C7B007A007926020D6014
:040D85007F097E0064
:100D8900D3EF9400EE94004015E4FDFC0DBD000185
:0E0D99000CED64734C70F5EF1F70E51E80E2E8
:010DA7002229
:100B5C00BB010689828A83E0225002E722BBFE0297
:090B6C00E32289828A83E49322CA
:100B7500EF8DF0A4A8F0CF8CF0A428CE8DF0A42E94
:020B8500FE224E
:100B8700BC000BBE0029EF8DF084FFADF022E4CC52
:100B9700F875F008EF2FFFEE33FEEC33FCEE9DEC1B
:100BA700984005FCEE9DFE0FD5F0E9E4CEFD22ED61
:100BB700F8F5F0EE8420D21CFEADF075F008EF2FAB
:100BC700FFED33FD4007985006D5F0F222C398FD9C
:050BD7000FD5F0EA2239
:10080000E5452439F8E6054522783630070278397F
:10081000E475F001120C1B020B5C2000EB7F2ED262
:10082000008018EF540F2490D43440D4FF30040BD0
:10083000EF24BFB41A0050032461FFE5466002159F
:10084000460549E5497002054830070D7836E475DC
:10085000F001120C1BEF020C09020D397403D207D0
:100860008003E4C207F5458B368A378938E4F546BC
:10087000F548F549E54660077F2012083B80F5758D
:1008800047FFC201C200C202C203C205C206C208BB
:10089000120809FF700D3007057F0012084CAF49A0
:1008A000AE4822B4255FC2D5C204120809FF24D085
:1008B000B40A00501A75F00A784630D50508B6FF1C
:1008C0000106C6A426F620D5047002D20380D924DE
:1008D000CFB41A00EF5004C2E5D204020A4CD20190
:1008E00080C6D20080C0D20280BCD2D580BAD205E8
:1008F00080B47F2012083B2002077401B5460040F7
:10090000F1120800FF12083B020874D208D20680D8
:1009100095120800FB120800FA120800F94A4B7001
:1009200006791D7A0B7BFF20022EE546602A7E00A9
:100930008E82758300120BDC60060EEE654770F048
:10094000C2D5EBC0E0EAC0E0E9C0E0EE120A93D005
:10095000E0F9D0E0FAD0E0FB120B5CFF60AAEBC03C
:10096000E0EAC0E0E9C0E012083BD0E02401F9D0A1
:10097000E03400FAD0E0FBE5470460DCD547D980DD
:10098000877BFF7A0A798FD202809C791080027966
:1009900008C206C2088008D2D5790A8004790AC242
:1009A000D5E547047002F547E4FAFDFEFF120800A2
:1009B000FC7B08200113120800FD7B1030000A1296
:1009C0000800FE120800FF7B20EC3382D592D55040
:1009D00013C3E43000069FFFE49EFEE42001039D64
:1009E000FDE49CFCE4CBF8C201EC700CCFCECDCC86
:1009F000E824F8F870F38017C3EF33FFEE33FEED11
:100A000033FDEC33FCEB33FB994002FB0FD8E9EBF1
:100A1000300105F8D0E0C448B201C0E00AEC4D4E08
:100A20004F78207B0070C2EAB5470040BCC0E0129E
:100A30000A95D0F0D0E0200104C4C0E0C4B201C0E7
:100A4000F0120824D0F0D5F0EB020874120C2B0938
:100A50001153098B5808E24C08DE42098F4F099761
:0F0A60004409974908F743099D550981460981C3
:100A6F00450981470B3D5008E62D08EA2E090D2B4D
:100A7F0008EE23090B200B262A08A64800000905BB
:100A8F003F3F3F00790AA2D5200314300509B91062
:100A9F00020404B9080104A2D52006025001042063
:100AAF0002689202B546005034C0E07F203003192F
:100ABF007F30A20272067205500F120AECC202C2F8
:100ACF0006C205C2087F30800F300503E9C0E0126F
:100ADF00083B300503D0E0F9D0E0B546CC30051720
:100AEF007F30B9100C12083B7F583004077F788095
:100AFF0003B9080312083B3002057F2D02083B7F24
:100B0F00202008F87F2B2006F322920280CF286E38
:100B1F00756C6C2900D2011208003001F8C20178FF
:100B2F004630D50108F60208A62D50434958120841
:100B3F00002403B405004001E4900B389312082CF5
:0D0B4F00743A12082CD20375460402098B7B
:100BDC00BB010CE58229F582E5833AF583E02250CE
:100BEC0006E92582F8E622BBFE06E92582F8E22218
:0D0BFC00E58229F582E5833AF583E4932232
:100C0900BB010689828A83F0225002F722BBFE01CA
:020C1900F322C4
:100C1B00FAE6FB0808E6F925F0F618E6CA3AF622DA
:100C2B00D083D082F8E4937012740193700DA3A358
:100C3B0093F8740193F5828883E47374029368606C
:060C4B00EFA3A3A380DF6C
:100D3900EFB40A07740D120D44740A309811A8997A
:100D4900B8130CC2983098FDA899C298B811F6301A
:070D590099FDC299F59922F2
:00000001FF
